:100000000C9461000C9473000C9473000C947300B6
:100010000C9473000C9473000C9473000C94730094
:100020000C9473000C9473000C9473000C94730084
:100030000C9473000C9473000C9473000C94730074
:100040000C9422010C9473000C9473000C947300B4
:100050000C9473000C9473000C9473000C94730054
:100060000C9473000C947300000000002300260021
:10007000290000000000240027002A0000000000E2
:10008000250028002B0004040404040404040202D4
:100090000202020203030303030301020408102007
:1000A0004080010204081020010204081020000012
:1000B0000008000201000003040700000000000027
:1000C000000011241FBECFEFD8E0DEBFCDBF21E07E
:1000D000A0E0B1E001C01D92AB30B207E1F70E9491
:1000E0006C010C94BC020C940000833081F028F465
:1000F000813099F08230A9F008958730A9F08830D6
:10010000C9F08430B1F4809180008F7D03C080916C
:1001100080008F7780938000089584B58F7784BDA9
:10012000089584B58F7DFBCF8091B0008F77809349
:10013000B00008958091B0008F7DF9CF1F93CF93C9
:10014000DF93282F30E0F901E255FF4F8491F90148
:10015000E656FF4FD491F901EA57FF4FC491CC23E3
:10016000A9F0162F81110E947500EC2FF0E0EE0F20
:10017000FF1FE458FF4FA591B4918FB7F894EC910D
:10018000111108C0D095DE23DC938FBFDF91CF9192
:100190001F910895DE2BF8CFCF93DF9390E0FC0101
:1001A000E656FF4F24918A579F4FFC018491882384
:1001B000D1F090E0880F991FFC01EE58FF4FA591F8
:1001C000B491FC01E458FF4FC591D491623071F4B1
:1001D0009FB7F8943C91822F809583238C93E8817C
:1001E0002E2B28839FBFDF91CF9108958FB7F8946E
:1001F000EC912E2B2C938FBFF6CF3FB7F8948091C4
:10020000070190910801A0910901B0910A0126B55A
:10021000A89B05C02F3F19F00196A11DB11D3FBF3E
:10022000BA2FA92F982F8827BC01CD01620F711D0D
:10023000811D911D42E0660F771F881F991F4A9507
:10024000D1F708951F920F920FB60F9211242F939A
:100250003F938F939F93AF93BF93809103019091AE
:100260000401A0910501B09106013091020123E043
:10027000230F2D3758F50196A11DB11D20930201C2
:100280008093030190930401A0930501B0930601AC
:100290008091070190910801A0910901B0910A0194
:1002A0000196A11DB11D8093070190930801A093B1
:1002B0000901B0930A01BF91AF919F918F913F9136
:1002C0002F910F900FBE0F901F90189526E8230FC7
:1002D0000296A11DB11DD2CF789484B5826084BDF1
:1002E00084B5816084BD85B5826085BD85B581603A
:1002F00085BD80916E00816080936E0010928100B8
:100300008091810082608093810080918100816072
:100310008093810080918000816080938000809133
:10032000B10084608093B1008091B00081608093BF
:10033000B00080917A00846080937A0080917A0086
:10034000826080937A0080917A00816080937A0045
:1003500080917A00806880937A001092C10062E0F8
:1003600082E00E94CC0061E083E00E94CC0061E06A
:1003700084E00E94CC0061E085E00E94CC0061E056
:1003800086E00E94CC0061E087E00E94CC0020EB78
:10039000822E20E0922ECCE9D0E008E810E030E098
:1003A000A32E30E0B32EE0900001F090010160E058
:1003B00084E00E949E0060E085E00E949E0060E074
:1003C00086E00E949E0060E087E00E949E002AE096
:1003D000E216F10408F08DC0F701EF50FE4F0C94C7
:1003E000B602FB010A021002430251025B026502DF
:1003F0006B027102770260E084E00E949E0060E080
:1004000085E00E949E0060E086E00E949E0060E021
:1004100084E014C060E084E00E949E0060E050C070
:1004200060E084E00E949E0060E085E00E949E0003
:1004300061E086E00E949E0060E087E00E949E00EE
:10044000F4018491FE01E490F801F490FF2009F496
:1004500052C081110E947500EF2DF0E0EE0FFF1FDA
:10046000E859FF4FA591B4918C91E82209F443C05B
:1004700060E083E00E949E00A114B10409F493CFD0
:100480000E94000090CF60E084E00E949E0060E047
:1004900085E00E949E0061E086E00E949E0061E08F
:1004A000CCCF60E084E00E949E0061E085E00E9485
:1004B0009E0060E0BECF60E084E00E949E0061E0AC
:1004C00085E00E949E0060E0E7CF60E084E00E944B
:1004D0009E0061E0AACF60E084E00E949E0061E09F
:1004E000D7CF61E084E00E949E0060E0DFCF61E052
:1004F00092CF61E08DCF61E083E00E949E000E9478
:10050000FD002B013C0188EEC82E83E0D82EE12CA3
:10051000F12C0E94FD006419750986099709683E4F
:10052000734081059105A8F3F1E0CF1AD108E108E5
:10053000F10828EE420E23E0521E611C711CC1140A
:10054000D104E104F10429F78091000190910101A7
:1005500001968A3091052CF490930101809300015B
:100560008BCF109201011092000186CFEE0FFF1F7A
:0C0570000590F491E02D0994F894FFCF61
:00000001FF
